S1134000FC170020D540000043410000314A000065
S1134010000000000000000000000000000000009C
S11340200000000000000000000000004741000004
S11340300000000000000000494100004B41000066
S11340404F410000574100005F41000067410000FC
S11340506F410000774100007F410000874100006C
S11340608F410000974100009F410000A7410000DC
S113407041450000B7410000BF410000C7410000B6
S1134080CF410000D7410000DF410000E7410000BC
S1134090EF410000F7410000FF410000074200002B
S11340A00F420000174200001F4200002742000098
S11340B02F420000374200003F4200004742000008
S11340C06053000080F8FF1F24000000A4F8FF1FC5
S11340D0E400000072B600F00FFE0E4B07E0186813
S11340E059681C000C349A6800F01AF823000A4A34
S11340F09342F4D306E018681C000834596800F0B1
S113410018F82300054A9342F5D362B601F095F8F6
S1134110FEE7C046C0400000CC400000D440000090
S113412010B5002302E010C810C104339342FAD33F
S113413010BD002302E0002204C004338B42FAD3F2
S11341407047FEE7FEE7FEE7FEE7FEE7FEE710B591
S1134150FFF7FCFF10BD10B5FFF7F8FF10BD10B559
S1134160FFF7F4FF10BD10B5FFF7F0FF10BD10B559
S1134170FFF7ECFF10BD10B5FFF7E8FF10BD10B559
S1134180FFF7E4FF10BD10B5FFF7E0FF10BD10B559
S113419000F070FD10BD10B5FFF7D8FF10BD10B5CD
S11341A0FFF7D4FF10BD10B5FFF7D0FF10BD10B559
S11341B000F06CFD10BD10B500F07AFD10BD10B517
S11341C000F088FD10BD10B5FFF7C0FF10BD10B59D
S11341D0FFF7BCFF10BD10B5FFF7B8FF10BD10B559
S11341E0FFF7B4FF10BD10B5FFF7B0FF10BD10B559
S11341F0FFF7ACFF10BD10B5FFF7A8FF10BD10B559
S1134200FFF7A4FF10BD10B5FFF7A0FF10BD10B558
S1134210FFF79CFF10BD10B5FFF798FF10BD10B558
S1134220FFF794FF10BD10B5FFF790FF10BD10B558
S1134230FFF78CFF10BD10B5FFF788FF10BD10B558
S1134240FFF784FF10BD10B5FFF780FF10BDFFFF1F
S1134250FFFFFFFFFFFFFFFFFFFFFFFFFFFFFFFF6A
S1134260FFFFFFFFFFFFFFFFFFFFFFFFFFFFFFFF5A
S1134270FFFFFFFFFFFFFFFFFFFFFFFFFFFFFFFF4A
S1134280FFFFFFFFFFFFFFFFFFFFFFFFFFFFFFFF3A
S11344C0FFFFFFFFFFFFFFFFFFFFFFFFFEFFFFFFF9
S11344D080B500AFBFF34F8FC046044B044ADA6087
S11344E0BFF34F8FC046C046FDE7C04600ED00E075
S11344F00400FA0580B500AF62B6C0460C4B0D4A05
S11345001900100000F0CAFA0A4B180000F07EFEF1
S1134510094B180000F04EF8074B180000F010FA91
S1134520064B1B78DBB2012BFAD100F02BF8F7E72E
S113453084F8FF1F00A006408CF8FF1F84F9FF1FBA
S113454080B500AF0B4BDB69DAB20B4B1A700A4B28
S11345501B78312B0AD1094B180000F02BF8074BBC
S1134560180000F0EDF9064B01221A70C046BD4652
S113457080BDC04600A0064085F9FF1F98F8FF1FC4
S113458084F9FF1F80B582B000AF084B00229A6007
S113459000231B687B607B6883F30888C046044B58
S11345A01B6801221A70FFF793FFC04600ED00E07C
S11345B080F8FF1F80B582B000AF78607B681B680D
S11345C0D24A934200D16FE0D04A934200D981E0AD
S11345D0CF4A934252D0CE4A934200D97AE0CD4A90
S11345E0934235D0CB4A934274D8CB4A934203D0FA
S11345F0CA4A934216D06DE0C94A92235B00D3584D
S1134600C749C84A1A4092235B00CA50C44A92233D
S11346105B00D358C2498022D2051A4392235B001F
S1134620CA5057E0BE4A94235B00D358BC49BD4AE4
S11346301A4094235B00CA50B94A94235B00D358B0
S1134640B7498022D2051A4394235B00CA5041E043
S1134650B34A96235B00D358B149B24A1A40962311
S11346605B00CA50AE4A96235B00D358AC49802203
S1134670D2051A4396235B00CA502BE0A84A98231C
S11346805B00D358A649A74A1A4098235B00CA5036
S1134690A34A98235B00D358A1498022D2051A4328
S11346A098235B00CA5015E09D4A9A235B00D358B7
S11346B09B499C4A1A409A235B00CA50984A9A2301
S11346C05B00D35896498022D2051A439A235B0093
S11346D0CA50C0467B681A687B685B689B0099581F
S11346E07B681A687B685B688F4801409B0099501F
S11346F07B681A687B685B689B0098587B681B7AA8
S11347001A02E023DB001A4011007B681A687B68F8
S11347105B6801439B0099507B685B7A012B00D056
S113472072E07B681B68794A93425CD0774A934273
S113473000D9A2E0764A934244D0754A934200D904
S11347409BE0744A93422CD0724A934200D994E07D
S1134750714A934203D0714A934211D08DE0734B56
S11347605B69724B00225A61704B5A697B685B68C3
S1134770012199400B0019006C4B0A435A617CE0FB
S11347806B4B5B696A4B00225A61694B5A697B68BF
S11347905B68012199400B001900654B0A435A617B
S11347A06BE0644B5B69634B00225A61614B5A694D
S11347B07B685B68012199400B0019005D4B0A433B
S11347C05A615AE05C4B5B695B4B00225A615A4B5D
S11347D05A697B685B68012199400B001900564BAC
S11347E00A435A6149E0554B5B69544B00225A61B4
S11347F0524B5A697B685B68012199400B00190090
S11348004E4B0A435A6138E07B681B683F4A934227
S11348102DD03E4A934230D83D4A934221D03C4A5F
S113482093422AD83B4A934215D03A4A934224D819
S1134830394A934203D0394A934206D01DE03B4B98
S11348405B693A4B00225A6117E0394B5B69384B7C
S113485000225A6111E0374B5B69364B00225A61E2
S11348600BE0354B5B69344B00225A6105E0334B56
S11348705B69324B00225A61C0467B681A687B68C8
S11348805B689B0099587B681A687B685B680220A8
S113489081439B0099507B681A687B685B689B0026
S11348A098587B689B7A5B000222134019007B684E
S11348B01A687B685B6801439B0099507B68DB7ACC
S11348C0012B0FD17B681B68A0229A587B685B6818
S11348D0012199400B0019007B681B680A43A02141
S11348E05A500FE07B681B68A0229A587B685B686B
S11348F0012199400B00DB4319007B681B680A40C7
S1134900A0215A50C046BD4602B080BD00D004402C
S113491000C0044000B004400090044000A00440E3
S113492000500640FFFFFFBFFFF8FFFF00F00F40FD
S113493040F00F4080F00F40C0F00F4000F10F40F6
S113494080B582B000AF78607B681B682E4A9342C2
S113495049D02D4A934253D82C4A934236D02B4AFD
S113496093424DD82A4A934223D0294A934247D8A6
S1134970284A934203D0284A93420DD040E0274B63
S11349801A687B685B68012199400B00DB431900BE
S1134990224B0A401A6033E0214B1A687B685B683B
S11349A0012199400B00DB4319001D4B0A401A609A
S11349B026E01C4B1A687B685B68012199400B0058
S11349C0DB431900174B0A401A6019E0164B1A68AA
S11349D07B685B68012199400B00DB431900124B93
S11349E00A401A600CE0114B1A687B685B6801216D
S11349F099400B00DB4319000C4B0A401A60C04677
S1134A00C046BD4602B080BD00D0044000C0044092
S1134A1000B004400090044000A0044000F00F40A7
S1134A2040F00F4080F00F40C0F00F4000F10F4005
S1134A3004207146084202D0EFF3098001E0EFF34D
S1134A40088081690A88074B9A4200D0FEE7023148
S1134A5081610168012901D0002100E02021016069
S1134A607047C046ABBE000080B582B000AF020004
S1134A70FB1D1A70FB1D1B787F2B09D8FB1D1B78AF
S1134A801A001F231A40044B012191400A001A60A6
S1134A90C046BD4602B080BD00E100E080B584B0F0
S1134AA000AF786039604F4AC1239B00D3584D4909
S1134AB04D4A1A40C1239B00CA504A4AC1239B0055
S1134AC0D3584849802252001A43C1239B00CA503C
S1134AD0464AD4235B00D3584449454A1A40D42358
S1134AE05B00CA50414AD4235B00D3583F49414A32
S1134AF01A40D4235B00CA503C4AD4235B00D358E9
S1134B003A49C02292041A43D4235B00CA50374A5C
S1134B10D4235B00D35835498022D2051A43D423C9
S1134B205B00CA50314A94235B00D3582F49304A62
S1134B301A4094235B00CA502C4A94235B00D35838
S1134B402A498022D2051A4394235B00CA502A4B77
S1134B50802292005A60284B802292001A607B685F
S1134B609B69264A1A407B689A611023FB603B6864
S1134B705868FB685A1C3B681B685343190000F0D3
S1134B8088FB03001A000A217B181A807B681B69C2
S1134B905B0B5A037B681A617B681A697B181B8854
S1134BA0DB04DB0C1A437B681A617B681B69144ABB
S1134BB01A407B681A617B681A69FB68013B190615
S1134BC0F8235B050B401A437B681A617B689B6979
S1134BD08022D2021A437B689A61C046BD4604B063
S1134BE080BDC04600400640FFF8FFFF005006406D
S1134BF0FFFFFFBFFFFFFFF800A00440FFFFF3FF2C
S1134C00FFFFFFE080B582B000AF786039607B6859
S1134C101B69012213400CD0124B1B68002B08D0D7
S1134C20104B1B68104A3968890089587A6810004B
S1134C3098477A6888235B00D358012213400CD02C
S1134C400A4B1B68002B08D0084B1B68084A3968BC
S1134C50890089587A6810009847C046BD4602B05A
S1134C6080BDC046A4F8FF1FA8F8FF1FACF8FF1FC3
S1134C70B0F8FF1F80B500AF034B00211800FFF709
S1134C80C1FFC046BD4680BD0060064080B500AF90
S1134C90044B1A68044B1B68044819009047C0462B
S1134CA0BD4680BDC0F8FF1FB4F8FF1F00A006403A
S1134CB080B500AF044B5A68044B5B680448190084
S1134CC09047C046BD4680BDC0F8FF1FB4F8FF1F23
S1134CD000B0064080B500AF044B9A68044B9B6853
S1134CE0044819009047C046BD4680BDC0F8FF1F68
S1134CF0B4F8FF1F00C0064080B500AF104B1A681F
S1134D0080239B01134003D00D4B0E4A5A6005E0EB
S1134D100B4B0D4A5A600A4B0C4A5A60084B0C4A1A
S1134D209A60074B1B68A02293431A00044B20216E
S1134D300A431A6000F07CFAC046BD4680BDC046F6
S1134D400020054020C528D920C5000028D900002E
S1134D50FFFF000070B5184C18492200002000F035
S1134D60ABF8802380225B0000212000D20000F0F9
S1134D702FF8134C134D22002900012000F09CF859
S1134D80802380225B0000212000D20000F020F864
S1134D900D4B1B68022B0DDD0C4C29002200022058
S1134DA000F08AF880238022002120005B00D200DA
S1134DB000F00EF870BDC046D0F8FF1F5C53000031
S1134DC00CF9FF1F5E5300005853000048F9FF1F01
S1134DD0F0B5C56804000120AE070CD08020800027
S1134DE0824213D08020C000824205D0802040003F
S1134DF082420BD0FF38F0BD21000123243115433A
S1134E00002021612160E361E560F4E7024F5E1E4A
S1134E100120BE42F3D9EEE7FEFFFF0003000321A9
S1134E2010B51A000B4219D1114C136811495918C5
S1134E309943214219D0DCB2511C002C0BD0FF2421
S1134E402402911C234206D0FF2109040B40591E61
S1134E508B41D318D91C0130081A05E001335C1EBC
S1134E602478002CDDD1101A10BD0432DDE7C046D1
S1134E7080808080FFFEFEFE2022C36810B593432D
S1134E80C3608269836A04009A420CD000F04EF831
S1134E90E268074B1A4010231343E360A36AA3613B
S1134EA02369E3622360E368024A1340E36010BDB0
S1134EB0EFCFFFFFBFBFFFFFF7B50D00019010005C
S1134EC0140000F095F82B78722B1CD0772B1DD092
S1134ED0612B26D1144A593B0220691C03278446BE
S1134EE00426012508782B2813D0622816D0E26006
S1134EF0019A62611B0704D502220021200000F000
S1134F00C5F82000FEBD00230122E5E704230222A8
S1134F10E2E760463A4303430131E3E732432B437C
S1134F20FAE70024EDE7C0460280000070B50400F3
S1134F30134AE36805691A400168C06AE260822284
S1134F401A40022A02D00120404270BDDB030CD576
S1134F50814200D201008D4209D10023094AA36095
S1134F60E368E56213402560E3600020EDE722007A
S1134F702800491B00F008F80028EED0E3E7C046FB
S1134F80FFFFF7FFFFFFFEFFF7B5D5680F00140022
S1134F9056690190EB0205D5102330001D4300F043
S1134FA0CAF9A061104B1D420FD03000A16900F076
S1134FB0CBF9002806DA80230120E268404213433B
S1134FC0E3600FE0094B1D40E5603A0030000199B1
S1134FD000F0C0F94300A2695B08FB1AD318A3616F
S1134FE00028E8D1FEBDC04610000200EFFFFDFF1F
S1134FF0F0B5C56804004769066989B0AB0720D0DD
S11350002B0716D400F022F8380000F091F92B0594
S113501002D5300000F01BF90B4BAD0DAD059D42E0
S113502007D120226846216A00F091F9684600F011
S113503024F93C220021200000F005F9002009B0E9
S1135040F0BD01204042FAE7000080ADF8B5002829
S113505012D000F0B7F805002800F8BD380060430E
S1135060084BC01800F0AEF8002801D001256D42AD
S11350700134A642F2DCEFE7034B040005003C27B1
S11350801E68F6E7D0F8FF1F58530000F7B54369D0
S1135090C6680193364B04000D0000921E420BD0EB
S11350A0019800F04BF9071E06D1009B012B06D096
S11350B0022B2DD0002B06D002273800FEBD200085
S11350C000F05AF82D18002DF6DBB30404D523683C
S11350D0E26A9A4200D2E362A369AB420EDCE16A5F
S11350E022688A4200D20A002169D0180091401A2D
S11350F0A84203DB206B1918A94228DC20231E4395
S11351000023A562A36063601A4B1E40E660D4E7E7
S1135110019800F010F9E268002804DA80231343B0
S11351200127E360C9E7E16A2368994200D90B00CB
S1135130A1695B1821695B1A920603D5A26A93429E
S113514000DA1300834200DA0300ED18BBE7EB1A20
S1135150B50701D5181AA060F00703D50099521AB3
S11351609A1A6260009AD118202321609E43CBE7EB
S113517003001000BFCFF7FFC16802008B0705D101
S1135180212201200E4B40421A60704720230B401D
S113519009030AD5002B02D0806A0138F5E7936928
S11351A00068C0181369C01AF7E7002B01D0806AA1
S11351B0EBE70368816900695B18181AE5E7C046E4
S11351C0CCF8FF1FC36870B503221E00040016400C
S11351D0134211D09B0611D5856AFFF74DFEE36893
S11351E0094A20001340E360FFF7A0FE00220600F6
S11351F029002000FFF74AFF300070BD836905686D
S1135200ED180369ED1AEAE7FFCFFFFF80B582B01E
S113521000AF78607B689B69802292031A437B68A5
S11352209A610C20FFF720FCC046BD4602B080BD49
S113523080B500AFC046BD4680BD10B5FFF78AFDFE
S1135240FFF758F910BD10B500F05DF810BD10B5AA
S1135250002811D080210C38490501608268002A99
S11352600AD013688B4207D14368546803331B196F
S1135270436093688360F1E710BD10B50400FFF745
S1135280CDFD0100200000F05CF810BD03000B43CD
S113529021D4002931D00122D207030901E00901F8
S11352A012099942FBD9430801E049005208994286
S11352B0FBD900E04908401A07D35241FAD301460A
S11352C01046704749084018F7D29218FAD340188C
S11352D0014610467047CB0F00D04942021000D55A
S11352E04042534008B5FFF7D4FF0CBC521000D322
S11352F04042002A00D549421847F446002000F0F5
S113530001F8604770478446043A09D3830707D1FC
S113531009060B0A19430B0C1943043A02C0FCD2C8
S1135320043203D001700130013AFBD1604670476A
S11353300120404270470120404270470120404212
S113534070470120404270470120404270470120CD
S1135350404270471000704703000000720077005D
S1135360FE17002080250000006CDC0200A0044031
S1135370040000000101000000C00440010000001E
S10753800101000023
S90340D5E7
