S1134000FC170020D5400000434100007148000027
S1134010000000000000000000000000000000009C
S11340200000000000000000000000004741000004
S1134030000000000000000049410000C5470000E6
S11340404F410000574100005F41000067410000FC
S11340506F410000774100007F410000874100006C
S11340608F410000974100009F410000A7410000DC
S113407061470000B7410000BF410000C741000094
S1134080CF410000D7410000DF410000E7410000BC
S1134090EF410000F7410000FF410000074200002B
S11340A00F420000174200001F4200002742000098
S11340B02F420000374200003F4200004742000008
S11340C03053000080F8FF1F1000000090F8FF1F1D
S11340D0E400000072B600F02FFD0E4B07E01868F4
S11340E059681C000C349A6800F01AF823000A4A34
S11340F09342F4D306E018681C000834596800F0B1
S113410018F82300054A9342F5D362B601F01BF870
S1134110FEE7C046C0400000CC400000D440000090
S113412010B5002302E010C810C104339342FAD33F
S113413010BD002302E0002204C004338B42FAD3F2
S11341407047FEE7FEE7FEE7FEE7FEE7FEE710B591
S1134150FFF7FCFF10BD10B5FFF7F8FF10BD10B559
S1134160FFF7F4FF10BD10B5FFF7F0FF10BD10B559
S1134170FFF7ECFF10BD10B5FFF7E8FF10BD10B559
S1134180FFF7E4FF10BD10B5FFF7E0FF10BD10B559
S113419000F090FC10BD10B5FFF7D8FF10BD10B5AE
S11341A0FFF7D4FF10BD10B5FFF7D0FF10BD10B559
S11341B000F08CFC10BD10B500F09AFC10BD10B5D9
S11341C000F0A8FC10BD10B5FFF7C0FF10BD10B57E
S11341D0FFF7BCFF10BD10B5FFF7B8FF10BD10B559
S11341E0FFF7B4FF10BD10B5FFF7B0FF10BD10B559
S11341F0FFF7ACFF10BD10B5FFF7A8FF10BD10B559
S1134200FFF7A4FF10BD10B5FFF7A0FF10BD10B558
S1134210FFF79CFF10BD10B5FFF798FF10BD10B558
S1134220FFF794FF10BD10B5FFF790FF10BD10B558
S1134230FFF78CFF10BD10B5FFF788FF10BD10B558
S1134240FFF784FF10BD10B5FFF780FF10BDFFFF1F
S1134250FFFFFFFFFFFFFFFFFFFFFFFFFFFFFFFF6A
S1134260FFFFFFFFFFFFFFFFFFFFFFFFFFFFFFFF5A
S1134270FFFFFFFFFFFFFFFFFFFFFFFFFFFFFFFF4A
S1134280FFFFFFFFFFFFFFFFFFFFFFFFFFFFFFFF3A
S11344C0FFFFFFFFFFFFFFFFFFFFFFFFFEFFFFFFF9
S11344D090B583B000AF02003960FB1D1A70FB1D5C
S11344E01B787F2B28D82F4AFB1D1B785BB29B08B7
S11344F0C0339B009B58FA1D1278110003220A4016
S1134500D200FF2191400A00D2431A4011003B68B7
S11345109B01FF221A40FB1D1B7818000323034054
S1134520DB009A401F48FB1D1B785BB29B080A43C3
S1134530C0339B001A5031E01B4AFB1D1B78190045
S11345400F230B40083B9B0806339B00D31804330E
S11345501B68FA1D1278110003220A40D200FF21C1
S113456091400A00D2431A4011003B689B01FF228C
S11345701A40FB1D1B78180003230340DB009A40FC
S11345800948FB1D1B781C000F232340083B9B0894
S11345900A4306339B00C31804331A60C046BD4661
S11345A003B090BD00E100E000ED00E080B500AF95
S11345B0BFF34F8FC046044B044ADA60BFF34F8FFA
S11345C0C046C046FDE7C04600ED00E00400FA0521
S11345D080B582B000AF78607B685A1E80235B048C
S11345E09A4201D3012310E00A4B7A68013A5A60D7
S11345F001235B4203211800FFF76AFF054B0022E9
S11346009A60044B07221A6000231800BD4602B0CA
S113461080BDC04610E000E080B582B000AF62B655
S1134620C04600F031F8134B1B68180000F035FE4B
S1134630031C1149181C00F009FD031C181C00F090
S1134640E8FD03007B600D4B0D4A1900100000F0DB
S113465045F90B4B180000F05FFD7B681800FFF76D
S1134660B7FF084B1B78DBB2012BFAD100F090F8AE
S1134670F7E7C0468CF8FF1FCDCC4C3E84F8FF1FF3
S113468000A0064071F9FF1F80B500AF2F4A9423A4
S11346905B00D3582D492E4A1A4094235B00CA501C
S11346A02A4A94235B00D35828498022D2051A430E
S11346B094235B00CA50254A98235B00D3582349AE
S11346C0234A1A4098235B00CA50204A98235B006F
S11346D0D3581E498022D2051A4398235B00CA503E
S11346E01C4B1A691B4B1C490A401A61194B1A6965
S11346F0184B802149000A431A61164B5A69154B1D
S113470015490A405A61134B5A69124B80214900DA
S11347100A435A61114B5A69104B10210A435A61DA
S11347200E4B5A690D4B20210A435A610B4B1A68F0
S11347300A4B10210A431A60084B1A68074B2021C0
S11347400A431A60C046BD4680BDC04600500640BC
S1134750FFFFFFBF00A00440FFF8FFFF40F00F4041
S113476080B500AF074BDB69DAB2074B1A70064B12
S11347701B78DBB2312B02D1044B01221A70C046E4
S1134780BD4680BD00A0064070F9FF1F71F9FF1FF0
S113479080B582B000AF72B6C046084B00229A6062
S11347A000231B687B607B6883F30888C046044B46
S11347B01B6801221A70FFF7F9FEC04600ED00E005
S11347C080F8FF1F80B500AF264B1B78DBB2002BAF
S11347D01ED0254B1B78DBB2002B0CD0234B1A6860
S11347E0224B10218A431A60204B1A681F4B202148
S11347F08A431A602AE01D4B1A681C4B10210A4395
S11348001A601A4B1A68194B20210A431A601DE0DA
S1134810154B1B78DBB2002B0CD0144B1A68134BCE
S113482020210A431A60114B1A68104B10218A4345
S11348301A600BE00D4B1A680C4B10210A431A60E6
S11348400A4B1A68094B20218A431A60064B1B78CD
S1134850DBB25A425341DBB21A00034B1A70C04612
S1134860BD4680BD73F9FF1F72F9FF1F40F00F4072
S113487004207146084202D0EFF3098001E0EFF30F
S1134880088081690A88074B9A4200D0FEE702310A
S113489081610168012901D0002100E0202101602B
S11348A07047C046ABBE000080B582B000AF0200C6
S11348B0FB1D1A70FB1D1B787F2B09D8FB1D1B7871
S11348C01A001F231A40044B012191400A001A6068
S11348D0C046BD4602B080BD00E100E080B584B0B2
S11348E000AF786039604F4AC1239B00D3584D49CB
S11348F04D4A1A40C1239B00CA504A4AC1239B0017
S1134900D3584849802252001A43C1239B00CA50FD
S1134910464AD4235B00D3584449454A1A40D42319
S11349205B00CA50414AD4235B00D3583F49414AF3
S11349301A40D4235B00CA503C4AD4235B00D358AA
S11349403A49C02292041A43D4235B00CA50374A1E
S1134950D4235B00D35835498022D2051A43D4238B
S11349605B00CA50314A94235B00D3582F49304A24
S11349701A4094235B00CA502C4A94235B00D358FA
S11349802A498022D2051A4394235B00CA502A4B39
S1134990802292005A60284B802292001A607B6821
S11349A09B69264A1A407B689A611023FB603B6826
S11349B05868FB685A1C3B681B685343190000F095
S11349C0EEFB03001A000A217B181A807B681B691E
S11349D05B0B5A037B681A617B681A697B181B8816
S11349E0DB04DB0C1A437B681A617B681B69144A7D
S11349F01A407B681A617B681A69FB68013B1906D7
S1134A00F8235B050B401A437B681A617B689B693A
S1134A108022D2021A437B689A61C046BD4604B024
S1134A2080BDC04600400640FFF8FFFF005006402E
S1134A30FFFFFFBFFFFFFFF800A00440FFFFF3FFED
S1134A40FFFFFFE080B582B000AF786039607B681B
S1134A501B69012213400CD0124B1B68002B08D099
S1134A60104B1B68104A3968890089587A6810000D
S1134A7098477A6888235B00D358012213400CD0EE
S1134A800A4B1B68002B08D0084B1B68084A39687E
S1134A90890089587A6810009847C046BD4602B01C
S1134AA080BDC04690F8FF1F94F8FF1F98F8FF1FC1
S1134AB09CF8FF1F80B500AF034B00211800FFF7DF
S1134AC0C1FFC046BD4680BD0060064080B500AF52
S1134AD0044B1A68044B1B68044819009047C046ED
S1134AE0BD4680BDACF8FF1FA0F8FF1F00A0064024
S1134AF080B500AF044B5A68044B5B680448190046
S1134B009047C046BD4680BDACF8FF1FA0F8FF1F0C
S1134B1000B0064080B500AF044B9A68044B9B6814
S1134B20044819009047C046BD4680BDACF8FF1F3D
S1134B30A0F8FF1F00C0064080B500AF104B1A68F4
S1134B4080239B01134003D00D4B0E4A5A6005E0AD
S1134B500B4B0D4A5A600A4B0C4A5A60084B0C4ADC
S1134B609A60074B1B68A02293431A00044B202130
S1134B700A431A6000F0E2FAC046BD4680BDC04652
S1134B800020054020C528D920C5000028D90000F0
S1134B90FFFF000070B5184C18492200002000F0F7
S1134BA0ABF8802380225B0000212000D20000F0BB
S1134BB02FF8134C134D22002900012000F09CF81B
S1134BC0802380225B0000212000D20000F020F826
S1134BD00D4B1B68022B0DDD0C4C2900220002201A
S1134BE000F08AF880238022002120005B00D2009C
S1134BF000F00EF870BDC046BCF8FF1F2C53000037
S1134C00F8F8FF1F2E5300002853000034F9FF1F4B
S1134C10F0B5C56804000120AE070CD080208000E8
S1134C20824213D08020C000824205D08020400000
S1134C3082420BD0FF38F0BD2100012324311543FB
S1134C40002021612160E361E560F4E7024F5E1E0C
S1134C500120BE42F3D9EEE7FEFFFF00030003216B
S1134C6010B51A000B4219D1114C13681149591887
S1134C709943214219D0DCB2511C002C0BD0FF24E3
S1134C802402911C234206D0FF2109040B40591E23
S1134C908B41D318D91C0130081A05E001335C1E7E
S1134CA02478002CDDD1101A10BD0432DDE7C04693
S1134CB080808080FFFEFEFE2022C36810B59343EF
S1134CC0C3608269836A04009A420CD000F04EF8F3
S1134CD0E268074B1A4010231343E360A36AA361FD
S1134CE02369E3622360E368024A1340E36010BD72
S1134CF0EFCFFFFFBFBFFFFFF7B50D00019010001E
S1134D00140000F095F82B78722B1CD0772B1DD053
S1134D10612B26D1144A593B0220691C032784467F
S1134D200426012508782B2813D0622816D0E260C7
S1134D30019A62611B0704D502220021200000F0C1
S1134D40C5F82000FEBD00230122E5E7042302226A
S1134D50E2E760463A4303430131E3E732432B433E
S1134D60FAE70024EDE7C0460280000070B50400B5
S1134D70134AE36805691A400168C06AE260822246
S1134D801A40022A02D00120404270BDDB030CD538
S1134D90814200D201008D4209D10023094AA36057
S1134DA0E368E56213402560E3600020EDE722003C
S1134DB02800491B00F008F80028EED0E3E7C046BD
S1134DC0FFFFF7FFFFFFFEFFF7B5D5680F001400E4
S1134DD056690190EB0205D5102330001D4300F005
S1134DE091FAA061104B1D420FD03000A16900F070
S1134DF092FA002806DA80230120E2684042134335
S1134E00E3600FE0094B1D40E5603A003000019972
S1134E1000F087FA4300A2695B08FB1AD318A36168
S1134E200028E8D1FEBDC04610000200EFFFFDFFE0
S1134E30F0B5C56804004769066989B0AB0720D09E
S1134E402B0716D400F022F8380000F058FA2B058E
S1134E5002D5300000F081F90B4BAD0DAD059D423C
S1134E6007D120226846216A00F058FA684600F00B
S1134E708AF93C220021200000F06BF9002009B0DF
S1134E80F0BD01204042FAE7000080ADF8B50028EB
S1134E9012D000F0B7F805002800F8BD38006043D0
S1134EA0084BC01800F0AEF8002801D001256D426F
S1134EB00134A642F2DCEFE7034B040005003C2773
S1134EC01E68F6E7BCF8FF1F28530000F7B54369D6
S1134ED0C6680193364B04000D0000921E420BD0AD
S1134EE0019800F012FA071E06D1009B012B06D090
S1134EF0022B2DD0002B06D002273800FEBD200047
S1134F0000F05AF82D18002DF6DBB30404D52368FD
S1134F10E26A9A4200D2E362A369AB420EDCE16A20
S1134F2022688A4200D20A002169D0180091401AEE
S1134F30A84203DB206B1918A94228DC20231E4356
S1134F400023A562A36063601A4B1E40E660D4E7A9
S1134F50019800F0D7F9E268002804DA80231343AB
S1134F600127E360C9E7E16A2368994200D90B008D
S1134F70A1695B1821695B1A920603D5A26A934260
S1134F8000DA1300834200DA0300ED18BBE7EB1AE2
S1134F90B50701D5181AA060F00703D50099521A75
S1134FA09A1A6260009AD118202321609E43CBE7AD
S1134FB003001000BFCFF7FFC16802008B0705D1C3
S1134FC0212201200E4B40421A60704720230B40DF
S1134FD009030AD5002B02D0806A0138F5E79369EA
S1134FE00068C0181369C01AF7E7002B01D0806A63
S1134FF0EBE70368816900695B18181AE5E7C046A6
S1135000B8F8FF1FC36870B503221E0004001640E1
S1135010134211D09B0611D5856AFFF74DFEE36854
S1135020094A20001340E360FFF7A0FE00220600B7
S113503029002000FFF74AFF300070BD836905682E
S1135040ED180369ED1AEAE7FFCFFFFF031CC00D5B
S113505070B5FF2204001D0014404D4010420DD0D5
S1135060944206D0CE0D30001040164201D090423A
S11350700CD1FF2258001206904238D2FF204A0079
S11350800006824235D2E80FC0071DE080222418B2
S1135090180200231206090210430A43190000F003
S11350A002F906000B1E10DA7F3CE80F190AC0074C
S11350B00143E205521880211B0609068B4207D0E2
S11350C0FD2C05D8DB0F981870BD803C4B00ECE735
S11350D0531C002E01D101229343FD2C01D8181C2E
S11350E0F2E7002CF0DBFF23DB051843ECE79042EA
S11350F00ED1FF204A000006824209D8FF20C005D5
S1135100184205D0084203D0ED0FED072843DBE732
S11351100048D9E70000C07F80B582B000AF786056
S11351207B689B69802292031A437B689A610C20F6
S1135130FFF7BAFBC046BD4602B080BD80B500AFE4
S1135140C046BD4680BD10B5FFF724FDFFF764FAE5
S113515010BD10B500F0BEF810BD10B5002811D078
S113516080210C38490501608268002A0AD013683E
S11351708B4207D14368546803331B194360936817
S11351808360F1E710BD10B50400FFF767FD01006F
S1135190200000F0BDF810BD03000B4321D400290A
S11351A031D00122D207030901E009011209994211
S11351B0FBD9430801E0490052089942FBD900E0B9
S11351C04908401A07D35241FAD3014610467047A2
S11351D049084018F7D29218FAD3401801461046ED
S11351E07047CB0F00D04942021000D540425340D3
S11351F008B5FFF7D4FF0CBC521000D34042002A7C
S113520000D549421847F446002000F001F86047F1
S113521070479E22C10D031C521A05D4030280203C
S113522000061843D0407047FE2903D942020020EB
S11352308242F8D1D80F0138F5E700282BD0030CAF
S113524015D10004030E16D10002030F17D100017B
S1135250830F18D18000002819DB4000803002122F
S11352605218000601D101239A43101C7047802371
S11352701B05C918E6E78023DB04C918E5E780238A
S11352809B04C918E4E780235B04C918E3E780237F
S11352901B04C918E2E70020E8E7802110B5C9051E
S11352A0FFF7CBFF10BD10B543435143C918040C9D
S11352B0130C5C43091992B2040C544380B2434367
S11352C050432204240C801861411A041B0C8018DA
S11352D0594110BD8446043A09D3830707D109060E
S11352E00B0A19430B0C1943043A02C0FCD20432D2
S11352F003D001700130013AFBD1604670470120B0
S113530040427047012040427047012040427047AC
S11353100120404270470120404270470120404232
S1135320704710007047FFFF030000007200770011
S1135330FE17002080250000006CDC02006CDC02FB
S90340D5E7
